{
  "contractName": "NFT",
  "abi": [
    {
      "inputs": [
        {
          "internalType": "string",
          "name": "name_",
          "type": "string"
        },
        {
          "internalType": "string",
          "name": "symbol_",
          "type": "string"
        }
      ],
      "stateMutability": "nonpayable",
      "type": "constructor"
    },
    {
      "anonymous": false,
      "inputs": [
        {
          "indexed": true,
          "internalType": "address",
          "name": "owner",
          "type": "address"
        },
        {
          "indexed": true,
          "internalType": "address",
          "name": "approved",
          "type": "address"
        },
        {
          "indexed": true,
          "internalType": "uint256",
          "name": "tokenId",
          "type": "uint256"
        }
      ],
      "name": "Approval",
      "type": "event"
    },
    {
      "anonymous": false,
      "inputs": [
        {
          "indexed": true,
          "internalType": "address",
          "name": "owner",
          "type": "address"
        },
        {
          "indexed": true,
          "internalType": "address",
          "name": "operator",
          "type": "address"
        },
        {
          "indexed": false,
          "internalType": "bool",
          "name": "approved",
          "type": "bool"
        }
      ],
      "name": "ApprovalForAll",
      "type": "event"
    },
    {
      "anonymous": false,
      "inputs": [
        {
          "indexed": true,
          "internalType": "address",
          "name": "from",
          "type": "address"
        },
        {
          "indexed": true,
          "internalType": "address",
          "name": "to",
          "type": "address"
        },
        {
          "indexed": true,
          "internalType": "uint256",
          "name": "tokenId",
          "type": "uint256"
        }
      ],
      "name": "Transfer",
      "type": "event"
    },
    {
      "inputs": [
        {
          "internalType": "address",
          "name": "to",
          "type": "address"
        },
        {
          "internalType": "uint256",
          "name": "tokenId",
          "type": "uint256"
        }
      ],
      "name": "approve",
      "outputs": [],
      "stateMutability": "nonpayable",
      "type": "function"
    },
    {
      "inputs": [
        {
          "internalType": "address",
          "name": "owner",
          "type": "address"
        }
      ],
      "name": "balanceOf",
      "outputs": [
        {
          "internalType": "uint256",
          "name": "",
          "type": "uint256"
        }
      ],
      "stateMutability": "view",
      "type": "function"
    },
    {
      "inputs": [
        {
          "internalType": "uint256",
          "name": "tokenId",
          "type": "uint256"
        }
      ],
      "name": "getApproved",
      "outputs": [
        {
          "internalType": "address",
          "name": "",
          "type": "address"
        }
      ],
      "stateMutability": "view",
      "type": "function"
    },
    {
      "inputs": [
        {
          "internalType": "address",
          "name": "owner",
          "type": "address"
        },
        {
          "internalType": "address",
          "name": "operator",
          "type": "address"
        }
      ],
      "name": "isApprovedForAll",
      "outputs": [
        {
          "internalType": "bool",
          "name": "",
          "type": "bool"
        }
      ],
      "stateMutability": "view",
      "type": "function"
    },
    {
      "inputs": [],
      "name": "name",
      "outputs": [
        {
          "internalType": "string",
          "name": "",
          "type": "string"
        }
      ],
      "stateMutability": "view",
      "type": "function"
    },
    {
      "inputs": [
        {
          "internalType": "uint256",
          "name": "tokenId",
          "type": "uint256"
        }
      ],
      "name": "ownerOf",
      "outputs": [
        {
          "internalType": "address",
          "name": "",
          "type": "address"
        }
      ],
      "stateMutability": "view",
      "type": "function"
    },
    {
      "inputs": [
        {
          "internalType": "address",
          "name": "from",
          "type": "address"
        },
        {
          "internalType": "address",
          "name": "to",
          "type": "address"
        },
        {
          "internalType": "uint256",
          "name": "tokenId",
          "type": "uint256"
        }
      ],
      "name": "safeTransferFrom",
      "outputs": [],
      "stateMutability": "nonpayable",
      "type": "function"
    },
    {
      "inputs": [
        {
          "internalType": "address",
          "name": "from",
          "type": "address"
        },
        {
          "internalType": "address",
          "name": "to",
          "type": "address"
        },
        {
          "internalType": "uint256",
          "name": "tokenId",
          "type": "uint256"
        },
        {
          "internalType": "bytes",
          "name": "_data",
          "type": "bytes"
        }
      ],
      "name": "safeTransferFrom",
      "outputs": [],
      "stateMutability": "nonpayable",
      "type": "function"
    },
    {
      "inputs": [
        {
          "internalType": "address",
          "name": "operator",
          "type": "address"
        },
        {
          "internalType": "bool",
          "name": "approved",
          "type": "bool"
        }
      ],
      "name": "setApprovalForAll",
      "outputs": [],
      "stateMutability": "nonpayable",
      "type": "function"
    },
    {
      "inputs": [
        {
          "internalType": "bytes4",
          "name": "interfaceId",
          "type": "bytes4"
        }
      ],
      "name": "supportsInterface",
      "outputs": [
        {
          "internalType": "bool",
          "name": "",
          "type": "bool"
        }
      ],
      "stateMutability": "view",
      "type": "function"
    },
    {
      "inputs": [],
      "name": "symbol",
      "outputs": [
        {
          "internalType": "string",
          "name": "",
          "type": "string"
        }
      ],
      "stateMutability": "view",
      "type": "function"
    },
    {
      "inputs": [
        {
          "internalType": "address",
          "name": "from",
          "type": "address"
        },
        {
          "internalType": "address",
          "name": "to",
          "type": "address"
        },
        {
          "internalType": "uint256",
          "name": "tokenId",
          "type": "uint256"
        }
      ],
      "name": "transferFrom",
      "outputs": [],
      "stateMutability": "nonpayable",
      "type": "function"
    },
    {
      "inputs": [
        {
          "internalType": "address",
          "name": "to",
          "type": "address"
        },
        {
          "internalType": "uint256",
          "name": "tokenId",
          "type": "uint256"
        }
      ],
      "name": "mint",
      "outputs": [],
      "stateMutability": "nonpayable",
      "type": "function"
    },
    {
      "inputs": [
        {
          "internalType": "string",
          "name": "_uri",
          "type": "string"
        }
      ],
      "name": "setBaseURI",
      "outputs": [],
      "stateMutability": "nonpayable",
      "type": "function"
    },
    {
      "inputs": [
        {
          "internalType": "uint256",
          "name": "tokenId",
          "type": "uint256"
        }
      ],
      "name": "tokenURI",
      "outputs": [
        {
          "internalType": "string",
          "name": "",
          "type": "string"
        }
      ],
      "stateMutability": "view",
      "type": "function"
    },
    {
      "inputs": [
        {
          "internalType": "uint256",
          "name": "tokenId",
          "type": "uint256"
        },
        {
          "internalType": "string",
          "name": "_uri",
          "type": "string"
        }
      ],
      "name": "setTokenURI",
      "outputs": [],
      "stateMutability": "nonpayable",
      "type": "function"
    }
  ],
  "bytecode": "0x60a06040819052600060808190526200001b9160079162000086565b503480156200002957600080fd5b5060405162001805380380620018058339810160408190526200004c91620001df565b8151829082906200006590600090602085019062000086565b5080516200007b90600190602084019062000086565b505050505062000299565b828054620000949062000246565b90600052602060002090601f016020900481019282620000b8576000855562000103565b82601f10620000d357805160ff191683800117855562000103565b8280016001018555821562000103579182015b8281111562000103578251825591602001919060010190620000e6565b506200011192915062000115565b5090565b5b8082111562000111576000815560010162000116565b600082601f8301126200013d578081fd5b81516001600160401b03808211156200015a576200015a62000283565b604051601f8301601f19908116603f0116810190828211818310171562000185576200018562000283565b81604052838152602092508683858801011115620001a1578485fd5b8491505b83821015620001c45785820183015181830184015290820190620001a5565b83821115620001d557848385830101525b9695505050505050565b60008060408385031215620001f2578182fd5b82516001600160401b038082111562000209578384fd5b62000217868387016200012c565b935060208501519150808211156200022d578283fd5b506200023c858286016200012c565b9150509250929050565b6002810460018216806200025b57607f821691505b602082108114156200027d57634e487b7160e01b600052602260045260246000fd5b50919050565b634e487b7160e01b600052604160045260246000fd5b61155c80620002a96000396000f3fe608060405234801561001057600080fd5b50600436106101005760003560e01c806355f804b311610097578063a22cb46511610066578063a22cb46514610212578063b88d4fde14610225578063c87b56dd14610238578063e985e9c51461024b57610100565b806355f804b3146101c45780636352211e146101d757806370a08231146101ea57806395d89b411461020a57610100565b8063162094c4116100d3578063162094c41461017857806323b872dd1461018b57806340c10f191461019e57806342842e0e146101b157610100565b806301ffc9a71461010557806306fdde031461012e578063081812fc14610143578063095ea7b314610163575b600080fd5b610118610113366004610e3d565b61025e565b6040516101259190611031565b60405180910390f35b6101366102a6565b604051610125919061103c565b610156610151366004610ea8565b610338565b6040516101259190610fe0565b610176610171366004610e14565b610384565b005b610176610186366004610ec0565b61041c565b610176610199366004610d26565b610458565b6101766101ac366004610e14565b610490565b6101766101bf366004610d26565b61049e565b6101766101d2366004610e75565b6104b9565b6101566101e5366004610ea8565b6104cc565b6101fd6101f8366004610cda565b610501565b6040516101259190611436565b610136610545565b610176610220366004610dda565b610554565b610176610233366004610d61565b610566565b610136610246366004610ea8565b6105a5565b610118610259366004610cf4565b61060a565b60006001600160e01b031982166380ac58cd60e01b148061028f57506001600160e01b03198216635b5e139f60e01b145b8061029e575061029e82610638565b90505b919050565b6060600080546102b5906114a6565b80601f01602080910402602001604051908101604052809291908181526020018280546102e1906114a6565b801561032e5780601f106103035761010080835404028352916020019161032e565b820191906000526020600020905b81548152906001019060200180831161031157829003601f168201915b5050505050905090565b600061034382610651565b6103685760405162461bcd60e51b815260040161035f90611309565b60405180910390fd5b506000908152600460205260409020546001600160a01b031690565b600061038f826104cc565b9050806001600160a01b0316836001600160a01b031614156103c35760405162461bcd60e51b815260040161035f906113a4565b806001600160a01b03166103d561066e565b6001600160a01b031614806103f157506103f18161025961066e565b61040d5760405162461bcd60e51b815260040161035f906111e4565b6104178383610672565b505050565b33610426836104cc565b6001600160a01b03161461043957600080fd5b6000828152600660209081526040909120825161041792840190610b8e565b61046961046361066e565b826106e0565b6104855760405162461bcd60e51b815260040161035f906113e5565b610417838383610765565b61049a8282610898565b5050565b61041783838360405180602001604052806000815250610566565b805161049a906007906020840190610b8e565b6000818152600260205260408120546001600160a01b03168061029e5760405162461bcd60e51b815260040161035f9061128b565b60006001600160a01b0382166105295760405162461bcd60e51b815260040161035f90611241565b506001600160a01b031660009081526003602052604090205490565b6060600180546102b5906114a6565b61049a61055f61066e565b838361097f565b61057761057161066e565b836106e0565b6105935760405162461bcd60e51b815260040161035f906113e5565b61059f84848484610a22565b50505050565b60606105b082610651565b6105cc5760405162461bcd60e51b815260040161035f90611355565b6105d4610a55565b60008381526006602090815260409182902091516105f493929101610f31565b6040516020818303038152906040529050919050565b6001600160a01b03918216600090815260056020908152604080832093909416825291909152205460ff1690565b6001600160e01b031981166301ffc9a760e01b14919050565b6000908152600260205260409020546001600160a01b0316151590565b3390565b600081815260046020526040902080546001600160a01b0319166001600160a01b03841690811790915581906106a7826104cc565b6001600160a01b03167f8c5be1e5ebec7d5bd14f71427d1e84f3dd0314c0f7b2291e5b200ac8c7c3b92560405160405180910390a45050565b60006106eb82610651565b6107075760405162461bcd60e51b815260040161035f90611198565b6000610712836104cc565b9050806001600160a01b0316846001600160a01b0316148061074d5750836001600160a01b031661074284610338565b6001600160a01b0316145b8061075d575061075d818561060a565b949350505050565b826001600160a01b0316610778826104cc565b6001600160a01b03161461079e5760405162461bcd60e51b815260040161035f906110a1565b6001600160a01b0382166107c45760405162461bcd60e51b815260040161035f9061111d565b6107cf838383610417565b6107da600082610672565b6001600160a01b0383166000908152600360205260408120805460019290610803908490611463565b90915550506001600160a01b038216600090815260036020526040812080546001929061083190849061144b565b909155505060008181526002602052604080822080546001600160a01b0319166001600160a01b0386811691821790925591518493918716917fddf252ad1be2c89b69c2b068fc378daa952ba7f163c4a11628f55a4df523b3ef91a4610417838383610417565b6001600160a01b0382166108be5760405162461bcd60e51b815260040161035f906112d4565b6108c781610651565b156108e45760405162461bcd60e51b815260040161035f906110e6565b6108f060008383610417565b6001600160a01b038216600090815260036020526040812080546001929061091990849061144b565b909155505060008181526002602052604080822080546001600160a01b0319166001600160a01b03861690811790915590518392907fddf252ad1be2c89b69c2b068fc378daa952ba7f163c4a11628f55a4df523b3ef908290a461049a60008383610417565b816001600160a01b0316836001600160a01b031614156109b15760405162461bcd60e51b815260040161035f90611161565b6001600160a01b0383811660008181526005602090815260408083209487168084529490915290819020805460ff1916851515179055517f17307eab39ab6107e8899845ad3d59bd9653f200f220920489ca2b5937696c3190610a15908590611031565b60405180910390a3505050565b610a2d848484610765565b610a3984848484610a64565b61059f5760405162461bcd60e51b815260040161035f9061104f565b6060600780546102b5906114a6565b6000610a78846001600160a01b0316610b7f565b15610b7457836001600160a01b031663150b7a02610a9461066e565b8786866040518563ffffffff1660e01b8152600401610ab69493929190610ff4565b602060405180830381600087803b158015610ad057600080fd5b505af1925050508015610b00575060408051601f3d908101601f19168201909252610afd91810190610e59565b60015b610b5a573d808015610b2e576040519150601f19603f3d011682016040523d82523d6000602084013e610b33565b606091505b508051610b525760405162461bcd60e51b815260040161035f9061104f565b805181602001fd5b6001600160e01b031916630a85bd0160e11b14905061075d565b506001949350505050565b6001600160a01b03163b151590565b828054610b9a906114a6565b90600052602060002090601f016020900481019282610bbc5760008555610c02565b82601f10610bd557805160ff1916838001178555610c02565b82800160010185558215610c02579182015b82811115610c02578251825591602001919060010190610be7565b50610c0e929150610c12565b5090565b5b80821115610c0e5760008155600101610c13565b600067ffffffffffffffff80841115610c4257610c426114f7565b604051601f8501601f19908116603f01168101908282118183101715610c6a57610c6a6114f7565b81604052809350858152868686011115610c8357600080fd5b858560208301376000602087830101525050509392505050565b80356001600160a01b03811681146102a157600080fd5b600082601f830112610cc4578081fd5b610cd383833560208501610c27565b9392505050565b600060208284031215610ceb578081fd5b610cd382610c9d565b60008060408385031215610d06578081fd5b610d0f83610c9d565b9150610d1d60208401610c9d565b90509250929050565b600080600060608486031215610d3a578081fd5b610d4384610c9d565b9250610d5160208501610c9d565b9150604084013590509250925092565b60008060008060808587031215610d76578081fd5b610d7f85610c9d565b9350610d8d60208601610c9d565b925060408501359150606085013567ffffffffffffffff811115610daf578182fd5b8501601f81018713610dbf578182fd5b610dce87823560208401610c27565b91505092959194509250565b60008060408385031215610dec578182fd5b610df583610c9d565b915060208301358015158114610e09578182fd5b809150509250929050565b60008060408385031215610e26578182fd5b610e2f83610c9d565b946020939093013593505050565b600060208284031215610e4e578081fd5b8135610cd38161150d565b600060208284031215610e6a578081fd5b8151610cd38161150d565b600060208284031215610e86578081fd5b813567ffffffffffffffff811115610e9c578182fd5b61075d84828501610cb4565b600060208284031215610eb9578081fd5b5035919050565b60008060408385031215610ed2578182fd5b82359150602083013567ffffffffffffffff811115610eef578182fd5b610efb85828601610cb4565b9150509250929050565b60008151808452610f1d81602086016020860161147a565b601f01601f19169290920160200192915050565b600083516020610f44828583890161147a565b845491840191839060028104600180831680610f6157607f831692505b858310811415610f7f57634e487b7160e01b88526022600452602488fd5b808015610f935760018114610fa457610fd0565b60ff19851688528388019550610fd0565b610fad8b61143f565b895b85811015610fc85781548a820152908401908801610faf565b505083880195505b50939a9950505050505050505050565b6001600160a01b0391909116815260200190565b6001600160a01b038581168252841660208201526040810183905260806060820181905260009061102790830184610f05565b9695505050505050565b901515815260200190565b600060208252610cd36020830184610f05565b60208082526032908201527f4552433732313a207472616e7366657220746f206e6f6e20455243373231526560408201527131b2b4bb32b91034b6b83632b6b2b73a32b960711b606082015260800190565b60208082526025908201527f4552433732313a207472616e736665722066726f6d20696e636f72726563742060408201526437bbb732b960d91b606082015260800190565b6020808252601c908201527f4552433732313a20746f6b656e20616c7265616479206d696e74656400000000604082015260600190565b60208082526024908201527f4552433732313a207472616e7366657220746f20746865207a65726f206164646040820152637265737360e01b606082015260800190565b60208082526019908201527f4552433732313a20617070726f766520746f2063616c6c657200000000000000604082015260600190565b6020808252602c908201527f4552433732313a206f70657261746f7220717565727920666f72206e6f6e657860408201526b34b9ba32b73a103a37b5b2b760a11b606082015260800190565b60208082526038908201527f4552433732313a20617070726f76652063616c6c6572206973206e6f74206f7760408201527f6e6572206e6f7220617070726f76656420666f7220616c6c0000000000000000606082015260800190565b6020808252602a908201527f4552433732313a2062616c616e636520717565727920666f7220746865207a65604082015269726f206164647265737360b01b606082015260800190565b60208082526029908201527f4552433732313a206f776e657220717565727920666f72206e6f6e657869737460408201526832b73a103a37b5b2b760b91b606082015260800190565b6020808252818101527f4552433732313a206d696e7420746f20746865207a65726f2061646472657373604082015260600190565b6020808252602c908201527f4552433732313a20617070726f76656420717565727920666f72206e6f6e657860408201526b34b9ba32b73a103a37b5b2b760a11b606082015260800190565b6020808252602f908201527f4552433732314d657461646174613a2055524920717565727920666f72206e6f60408201526e3732bc34b9ba32b73a103a37b5b2b760891b606082015260800190565b60208082526021908201527f4552433732313a20617070726f76616c20746f2063757272656e74206f776e656040820152603960f91b606082015260800190565b60208082526031908201527f4552433732313a207472616e736665722063616c6c6572206973206e6f74206f6040820152701ddb995c881b9bdc88185c1c1c9bdd9959607a1b606082015260800190565b90815260200190565b60009081526020902090565b6000821982111561145e5761145e6114e1565b500190565b600082821015611475576114756114e1565b500390565b60005b8381101561149557818101518382015260200161147d565b8381111561059f5750506000910152565b6002810460018216806114ba57607f821691505b602082108114156114db57634e487b7160e01b600052602260045260246000fd5b50919050565b634e487b7160e01b600052601160045260246000fd5b634e487b7160e01b600052604160045260246000fd5b6001600160e01b03198116811461152357600080fd5b5056fea2646970667358221220fce43f5e10d46c54aaffc346c343f821e40842421f76f0f2a28f648f7c82d28b64736f6c63430008010033",
  "immutableReferences": {},
  "source": "pragma solidity ^0.8.1;\n\nimport \"@openzeppelin/contracts/token/ERC721/ERC721.sol\";\n\ncontract NFT is ERC721 {\n\n    // Mapping from token ID to owner address\n    mapping(uint256 => string) private _uris;\n\n    string baseURI = \"\";\n    \n    constructor(string memory name_, string memory symbol_) ERC721 (name_, symbol_) {\n    }\n\n    function mint (address to, uint256 tokenId) public {\n        _mint(to, tokenId);\n    }\n\n    function setBaseURI(string memory _uri) public {\n        baseURI = _uri;\n    }\n\n    function _baseURI() internal view virtual override returns (string memory) {\n        return baseURI;\n    }\n\n    function tokenURI(uint256 tokenId) public view virtual override returns (string memory) {\n        require(_exists(tokenId), \"ERC721Metadata: URI query for nonexistent token\");\n        return string(abi.encodePacked(_baseURI(), _uris[tokenId]));\n    }\n\n    function setTokenURI(uint256 tokenId, string memory _uri) public {\n        require (ownerOf(tokenId) == msg.sender);\n        _uris[tokenId] = _uri;\n    }\n}",
  "sourcePath": "/home/fasih/Desktop/Fasih/Github/FractionalNFT/contracts/NFT.sol",
  "compiler": {
    "name": "solc",
    "version": "0.8.1+commit.df193b15.Emscripten.clang"
  },
  "schemaVersion": "3.4.5",
  "updatedAt": "2022-03-08T12:29:26.765Z",
  "devdoc": {
    "kind": "dev",
    "methods": {
      "approve(address,uint256)": {
        "details": "See {IERC721-approve}."
      },
      "balanceOf(address)": {
        "details": "See {IERC721-balanceOf}."
      },
      "getApproved(uint256)": {
        "details": "See {IERC721-getApproved}."
      },
      "isApprovedForAll(address,address)": {
        "details": "See {IERC721-isApprovedForAll}."
      },
      "name()": {
        "details": "See {IERC721Metadata-name}."
      },
      "ownerOf(uint256)": {
        "details": "See {IERC721-ownerOf}."
      },
      "safeTransferFrom(address,address,uint256)": {
        "details": "See {IERC721-safeTransferFrom}."
      },
      "safeTransferFrom(address,address,uint256,bytes)": {
        "details": "See {IERC721-safeTransferFrom}."
      },
      "setApprovalForAll(address,bool)": {
        "details": "See {IERC721-setApprovalForAll}."
      },
      "supportsInterface(bytes4)": {
        "details": "See {IERC165-supportsInterface}."
      },
      "symbol()": {
        "details": "See {IERC721Metadata-symbol}."
      },
      "tokenURI(uint256)": {
        "details": "See {IERC721Metadata-tokenURI}."
      },
      "transferFrom(address,address,uint256)": {
        "details": "See {IERC721-transferFrom}."
      }
    },
    "version": 1
  },
  "userdoc": {
    "kind": "user",
    "methods": {},
    "version": 1
  }
}